{
  "contractName": "SplitVault",
  "abi": [
    {
      "inputs": [],
      "stateMutability": "nonpayable",
      "type": "constructor"
    },
    {
      "inputs": [
        {
          "internalType": "uint256",
          "name": "",
          "type": "uint256"
        }
      ],
      "name": "tokenList",
      "outputs": [
        {
          "internalType": "bytes32",
          "name": "",
          "type": "bytes32"
        }
      ],
      "stateMutability": "view",
      "type": "function",
      "constant": true
    },
    {
      "inputs": [
        {
          "internalType": "bytes32",
          "name": "",
          "type": "bytes32"
        }
      ],
      "name": "tokens",
      "outputs": [
        {
          "internalType": "bytes32",
          "name": "ticker",
          "type": "bytes32"
        },
        {
          "internalType": "address",
          "name": "tokenAddress",
          "type": "address"
        }
      ],
      "stateMutability": "view",
      "type": "function",
      "constant": true
    },
    {
      "inputs": [
        {
          "internalType": "string",
          "name": "name",
          "type": "string"
        }
      ],
      "name": "createSplitVault",
      "outputs": [
        {
          "internalType": "uint256",
          "name": "",
          "type": "uint256"
        }
      ],
      "stateMutability": "nonpayable",
      "type": "function"
    },
    {
      "inputs": [
        {
          "internalType": "uint256",
          "name": "splitVaultId",
          "type": "uint256"
        },
        {
          "internalType": "uint256",
          "name": "amount",
          "type": "uint256"
        }
      ],
      "name": "deposit",
      "outputs": [
        {
          "internalType": "uint256",
          "name": "",
          "type": "uint256"
        }
      ],
      "stateMutability": "nonpayable",
      "type": "function"
    },
    {
      "inputs": [
        {
          "internalType": "uint256",
          "name": "id",
          "type": "uint256"
        },
        {
          "internalType": "uint256",
          "name": "amount",
          "type": "uint256"
        }
      ],
      "name": "retire",
      "outputs": [],
      "stateMutability": "nonpayable",
      "type": "function"
    },
    {
      "inputs": [
        {
          "internalType": "uint256",
          "name": "id",
          "type": "uint256"
        }
      ],
      "name": "closeSubsplitVault",
      "outputs": [],
      "stateMutability": "nonpayable",
      "type": "function"
    },
    {
      "inputs": [],
      "name": "getTokens",
      "outputs": [
        {
          "components": [
            {
              "internalType": "bytes32",
              "name": "ticker",
              "type": "bytes32"
            },
            {
              "internalType": "address",
              "name": "tokenAddress",
              "type": "address"
            }
          ],
          "internalType": "struct SplitVault.Token[]",
          "name": "",
          "type": "tuple[]"
        }
      ],
      "stateMutability": "view",
      "type": "function",
      "constant": true
    },
    {
      "inputs": [
        {
          "internalType": "bytes32",
          "name": "ticker",
          "type": "bytes32"
        },
        {
          "internalType": "address",
          "name": "tokenAddress",
          "type": "address"
        }
      ],
      "name": "addToken",
      "outputs": [],
      "stateMutability": "nonpayable",
      "type": "function"
    },
    {
      "inputs": [
        {
          "internalType": "address",
          "name": "sbOwner",
          "type": "address"
        }
      ],
      "name": "getSplitVaults",
      "outputs": [
        {
          "components": [
            {
              "internalType": "uint256",
              "name": "splitId",
              "type": "uint256"
            },
            {
              "internalType": "string",
              "name": "name",
              "type": "string"
            },
            {
              "internalType": "bool",
              "name": "open",
              "type": "bool"
            },
            {
              "internalType": "uint256",
              "name": "totalAmount",
              "type": "uint256"
            }
          ],
          "internalType": "struct SplitVault.SplitVault[]",
          "name": "",
          "type": "tuple[]"
        }
      ],
      "stateMutability": "view",
      "type": "function",
      "constant": true
    },
    {
      "inputs": [
        {
          "internalType": "uint256",
          "name": "id",
          "type": "uint256"
        }
      ],
      "name": "getSplitVaultById",
      "outputs": [
        {
          "components": [
            {
              "internalType": "uint256",
              "name": "splitId",
              "type": "uint256"
            },
            {
              "internalType": "string",
              "name": "name",
              "type": "string"
            },
            {
              "internalType": "bool",
              "name": "open",
              "type": "bool"
            },
            {
              "internalType": "uint256",
              "name": "totalAmount",
              "type": "uint256"
            }
          ],
          "internalType": "struct SplitVault.SplitVault",
          "name": "",
          "type": "tuple"
        }
      ],
      "stateMutability": "view",
      "type": "function",
      "constant": true
    },
    {
      "inputs": [],
      "name": "getAllSplitVaults",
      "outputs": [
        {
          "components": [
            {
              "internalType": "uint256",
              "name": "splitId",
              "type": "uint256"
            },
            {
              "internalType": "string",
              "name": "name",
              "type": "string"
            },
            {
              "internalType": "bool",
              "name": "open",
              "type": "bool"
            },
            {
              "internalType": "uint256",
              "name": "totalAmount",
              "type": "uint256"
            }
          ],
          "internalType": "struct SplitVault.SplitVault[]",
          "name": "",
          "type": "tuple[]"
        }
      ],
      "stateMutability": "view",
      "type": "function",
      "constant": true
    },
    {
      "inputs": [
        {
          "internalType": "uint256",
          "name": "id",
          "type": "uint256"
        }
      ],
      "name": "getVaultById",
      "outputs": [
        {
          "components": [
            {
              "internalType": "uint256",
              "name": "VaultId",
              "type": "uint256"
            },
            {
              "internalType": "address",
              "name": "from",
              "type": "address"
            },
            {
              "internalType": "uint256",
              "name": "amount",
              "type": "uint256"
            },
            {
              "internalType": "uint256",
              "name": "part",
              "type": "uint256"
            },
            {
              "internalType": "uint256",
              "name": "splitId",
              "type": "uint256"
            }
          ],
          "internalType": "struct SplitVault.Vault",
          "name": "",
          "type": "tuple"
        }
      ],
      "stateMutability": "view",
      "type": "function",
      "constant": true
    },
    {
      "inputs": [
        {
          "internalType": "address",
          "name": "addr",
          "type": "address"
        }
      ],
      "name": "getVaultsByAddress",
      "outputs": [
        {
          "components": [
            {
              "internalType": "uint256",
              "name": "VaultId",
              "type": "uint256"
            },
            {
              "internalType": "address",
              "name": "from",
              "type": "address"
            },
            {
              "internalType": "uint256",
              "name": "amount",
              "type": "uint256"
            },
            {
              "internalType": "uint256",
              "name": "part",
              "type": "uint256"
            },
            {
              "internalType": "uint256",
              "name": "splitId",
              "type": "uint256"
            }
          ],
          "internalType": "struct SplitVault.Vault[]",
          "name": "",
          "type": "tuple[]"
        }
      ],
      "stateMutability": "view",
      "type": "function",
      "constant": true
    },
    {
      "inputs": [
        {
          "internalType": "uint256",
          "name": "id",
          "type": "uint256"
        }
      ],
      "name": "getTotalAmountsplitVault",
      "outputs": [
        {
          "internalType": "uint256",
          "name": "",
          "type": "uint256"
        }
      ],
      "stateMutability": "view",
      "type": "function",
      "constant": true
    }
  ],
  "bytecode": "0x60806040526001600e5573b8c77482e45f1f44de1745f52c74426c631bdd52601060006101000a81548173ffffffffffffffffffffffffffffffffffffffff021916908373ffffffffffffffffffffffffffffffffffffffff16021790555034801561006a57600080fd5b5033600f60006101000a81548173ffffffffffffffffffffffffffffffffffffffff021916908373ffffffffffffffffffffffffffffffffffffffff1602179055506000600c819055506000600d81905550612d35806100cb6000396000f3fe608060405234801561001057600080fd5b50600436106100ea5760003560e01c8063947087761161008c578063aa6ca80811610066578063aa6ca80814610282578063b11e2beb146102a0578063e2bbb158146102d0578063ef8a44c614610300576100ea565b806394708776146102065780639776aacf146102365780639ead722214610252576100ea565b8063293a7f2e116100c8578063293a7f2e1461015957806365415fca146101755780636cf22ca1146101a5578063904194a3146101d5576100ea565b806317790518146100ef5780631d00e29f1461010d5780631e9950681461013d575b600080fd5b6100f7610330565b6040516101049190612717565b60405180910390f35b61012760048036038101906101229190612072565b6106c0565b6040516101349190612717565b60405180910390f35b6101576004803603810190610152919061216a565b61095f565b005b610173600480360381019061016e9190612193565b610be9565b005b61018f600480360381019061018a919061216a565b610f8d565b60405161019c9190612821565b60405180910390f35b6101bf60048036038101906101ba9190612129565b61107a565b6040516101cc919061285e565b60405180910390f35b6101ef60048036038101906101ea91906120c4565b611328565b6040516101fd929190612798565b60405180910390f35b610220600480360381019061021b919061216a565b61136c565b60405161022d9190612843565b60405180910390f35b610250600480360381019061024b91906120ed565b611417565b005b61026c6004803603810190610267919061216a565b611566565b604051610279919061277d565b60405180910390f35b61028a61158a565b6040516102979190612739565b60405180910390f35b6102ba60048036038101906102b59190612072565b61177d565b6040516102c7919061275b565b60405180910390f35b6102ea60048036038101906102e59190612193565b6119da565b6040516102f7919061285e565b60405180910390f35b61031a6004803603810190610315919061216a565b611d7b565b604051610327919061285e565b60405180910390f35b6060600060095467ffffffffffffffff811115610376577f4e487b7100000000000000000000000000000000000000000000000000000000600052604160045260246000fd5b6040519080825280602002602001820160405280156103af57816020015b61039c611e71565b8152602001906001900390816103945790505b5090506000805b6007805490508110156106b75760005b6003600060078481548110610404577f4e487b7100000000000000000000000000000000000000000000000000000000600052603260045260246000fd5b9060005260206000200160009054906101000a900473ffffffffffffffffffffffffffffffffffffffff1673ffffffffffffffffffffffffffffffffffffffff1673ffffffffffffffffffffffffffffffffffffffff168152602001908152602001600020805490508110156106a357600060036000600785815481106104b4577f4e487b7100000000000000000000000000000000000000000000000000000000600052603260045260246000fd5b9060005260206000200160009054906101000a900473ffffffffffffffffffffffffffffffffffffffff1673ffffffffffffffffffffffffffffffffffffffff1673ffffffffffffffffffffffffffffffffffffffff1681526020019081526020016000208281548110610551577f4e487b7100000000000000000000000000000000000000000000000000000000600052603260045260246000fd5b906000526020600020015490506000808281526020019081526020016000206040518060800160405290816000820154815260200160018201805461059590612b5b565b80601f01602080910402602001604051908101604052809291908181526020018280546105c190612b5b565b801561060e5780601f106105e35761010080835404028352916020019161060e565b820191906000526020600020905b8154815290600101906020018083116105f157829003601f168201915b505050505081526020016002820160009054906101000a900460ff16151515158152602001600382015481525050858581518110610675577f4e487b7100000000000000000000000000000000000000000000000000000000600052603260045260246000fd5b602002602001018190525060018461068d91906129b2565b935050808061069b90612b8d565b9150506103c6565b5080806106af90612b8d565b9150506103b6565b50819250505090565b60606000600360008473ffffffffffffffffffffffffffffffffffffffff1673ffffffffffffffffffffffffffffffffffffffff16815260200190815260200160002080548060200260200160405190810160405280929190818152602001828054801561074d57602002820191906000526020600020905b815481526020019060010190808311610739575b505050505090506000815167ffffffffffffffff811115610797577f4e487b7100000000000000000000000000000000000000000000000000000000600052604160045260246000fd5b6040519080825280602002602001820160405280156107d057816020015b6107bd611e71565b8152602001906001900390816107b55790505b50905060005b82518110156109545760008084838151811061081b577f4e487b7100000000000000000000000000000000000000000000000000000000600052603260045260246000fd5b602002602001015181526020019081526020016000206040518060800160405290816000820154815260200160018201805461085690612b5b565b80601f016020809104026020016040519081016040528092919081815260200182805461088290612b5b565b80156108cf5780601f106108a4576101008083540402835291602001916108cf565b820191906000526020600020905b8154815290600101906020018083116108b257829003601f168201915b505050505081526020016002820160009054906101000a900460ff16151515158152602001600382015481525050828281518110610936577f4e487b7100000000000000000000000000000000000000000000000000000000600052603260045260246000fd5b6020026020010181905250808061094c90612b8d565b9150506107d6565b508092505050919050565b80600080600360003373ffffffffffffffffffffffffffffffffffffffff1673ffffffffffffffffffffffffffffffffffffffff1681526020019081526020016000208054806020026020016040519081016040528092919081815260200182805480156109ec57602002820191906000526020600020905b8154815260200190600101908083116109d8575b5050505050905060005b8151811015610a5f5783828281518110610a39577f4e487b7100000000000000000000000000000000000000000000000000000000600052603260045260246000fd5b60200260200101511415610a4c57600192505b8080610a5790612b8d565b9150506109f6565b506001151582151514610aa7576040517f08c379a0000000000000000000000000000000000000000000000000000000008152600401610a9e906127c1565b60405180910390fd5b60008060008681526020019081526020016000209050600060026000878152602001908152602001600020805480602002602001604051908101604052809291908181526020018280548015610b1c57602002820191906000526020600020905b815481526020019060010190808311610b08575b5050505050905060005b8151811015610bc357600060016000848481518110610b6e577f4e487b7100000000000000000000000000000000000000000000000000000000600052603260045260246000fd5b60200260200101518152602001908152602001600020905083600301546103e88260020154610b9d9190612a39565b610ba79190612a08565b8160030181905550508080610bbb90612b8d565b915050610b26565b5060008260020160006101000a81548160ff021916908315150217905550505050505050565b81600080600360003373ffffffffffffffffffffffffffffffffffffffff1673ffffffffffffffffffffffffffffffffffffffff168152602001908152602001600020805480602002602001604051908101604052809291908181526020018280548015610c7657602002820191906000526020600020905b815481526020019060010190808311610c62575b5050505050905060005b8151811015610ce95783828281518110610cc3577f4e487b7100000000000000000000000000000000000000000000000000000000600052603260045260246000fd5b60200260200101511415610cd657600192505b8080610ce190612b8d565b915050610c80565b506001151582151514610d31576040517f08c379a0000000000000000000000000000000000000000000000000000000008152600401610d28906127c1565b60405180910390fd5b6000600260008781526020019081526020016000209050600080600090505b8280549050811015610f8357600060016000858481548110610d9b577f4e487b7100000000000000000000000000000000000000000000000000000000600052603260045260246000fd5b9060005260206000200154815260200190815260200160002060030154905066038d7ea4c6800081670de0b6b3a76400008a610dd79190612a08565b610de19190612a39565b610deb9190612a39565b9250600a6000600b600081548110610e2c577f4e487b7100000000000000000000000000000000000000000000000000000000600052603260045260246000fd5b9060005260206000200154815260200190815260200160002060010160009054906101000a900473ffffffffffffffffffffffffffffffffffffffff1673ffffffffffffffffffffffffffffffffffffffff1663a9059cbb60016000878681548110610ec1577f4e487b7100000000000000000000000000000000000000000000000000000000600052603260045260246000fd5b9060005260206000200154815260200190815260200160002060010160009054906101000a900473ffffffffffffffffffffffffffffffffffffffff16856040518363ffffffff1660e01b8152600401610f1c9291906126ee565b602060405180830381600087803b158015610f3657600080fd5b505af1158015610f4a573d6000803e3d6000fd5b505050506040513d601f19601f82011682018060405250810190610f6e919061209b565b50508080610f7b90612b8d565b915050610d50565b5050505050505050565b610f95611e71565b60008083815260200190815260200160002060405180608001604052908160008201548152602001600182018054610fcc90612b5b565b80601f0160208091040260200160405190810160405280929190818152602001828054610ff890612b5b565b80156110455780601f1061101a57610100808354040283529160200191611045565b820191906000526020600020905b81548152906001019060200180831161102857829003601f168201915b505050505081526020016002820160009054906101000a900460ff161515151581526020016003820154815250509050919050565b60006040518060800160405280600c5481526020018381526020016001151581526020016000815250600080600c5481526020019081526020016000206000820151816000015560208201518160010190805190602001906110dd929190611e9b565b5060408201518160020160006101000a81548160ff0219169083151502179055506060820151816003015590505060001515600860003373ffffffffffffffffffffffffffffffffffffffff1673ffffffffffffffffffffffffffffffffffffffff16815260200190815260200160002060009054906101000a900460ff1615151415611220576007339080600181540180825580915050600190039060005260206000200160009091909190916101000a81548173ffffffffffffffffffffffffffffffffffffffff021916908373ffffffffffffffffffffffffffffffffffffffff1602179055506001600860003373ffffffffffffffffffffffffffffffffffffffff1673ffffffffffffffffffffffffffffffffffffffff16815260200190815260200160002060006101000a81548160ff0219169083151502179055505b6000600360003373ffffffffffffffffffffffffffffffffffffffff1673ffffffffffffffffffffffffffffffffffffffff168152602001908152602001600020905080600c5490806001815401808255809150506001900390600052602060002001600090919091909150553360056000600c54815260200190815260200160002060006101000a81548173ffffffffffffffffffffffffffffffffffffffff021916908373ffffffffffffffffffffffffffffffffffffffff160217905550600c60008154809291906112f490612b8d565b91905055506009600081548092919061130c90612b8d565b91905055506001600c546113209190612a93565b915050919050565b600a6020528060005260406000206000915090508060000154908060010160009054906101000a900473ffffffffffffffffffffffffffffffffffffffff16905082565b611374611f21565b600160008381526020019081526020016000206040518060a0016040529081600082015481526020016001820160009054906101000a900473ffffffffffffffffffffffffffffffffffffffff1673ffffffffffffffffffffffffffffffffffffffff1673ffffffffffffffffffffffffffffffffffffffff16815260200160028201548152602001600382015481526020016004820154815250509050919050565b600f60009054906101000a900473ffffffffffffffffffffffffffffffffffffffff1673ffffffffffffffffffffffffffffffffffffffff163373ffffffffffffffffffffffffffffffffffffffff16146114a7576040517f08c379a000000000000000000000000000000000000000000000000000000000815260040161149e90612801565b60405180910390fd5b60405180604001604052808381526020018273ffffffffffffffffffffffffffffffffffffffff16815250600a60008481526020019081526020016000206000820151816000015560208201518160010160006101000a81548173ffffffffffffffffffffffffffffffffffffffff021916908373ffffffffffffffffffffffffffffffffffffffff160217905550905050600b8290806001815401808255809150506001900390600052602060002001600090919091909150555050565b600b818154811061157657600080fd5b906000526020600020016000915090505481565b60606000600b8054905067ffffffffffffffff8111156115d3577f4e487b7100000000000000000000000000000000000000000000000000000000600052604160045260246000fd5b60405190808252806020026020018201604052801561160c57816020015b6115f9611f66565b8152602001906001900390816115f15790505b50905060005b600b80549050811015611775576040518060400160405280600a6000600b8581548110611668577f4e487b7100000000000000000000000000000000000000000000000000000000600052603260045260246000fd5b90600052602060002001548152602001908152602001600020600001548152602001600a6000600b85815481106116c8577f4e487b7100000000000000000000000000000000000000000000000000000000600052603260045260246000fd5b9060005260206000200154815260200190815260200160002060010160009054906101000a900473ffffffffffffffffffffffffffffffffffffffff1673ffffffffffffffffffffffffffffffffffffffff16815250828281518110611757577f4e487b7100000000000000000000000000000000000000000000000000000000600052603260045260246000fd5b6020026020010181905250808061176d90612b8d565b915050611612565b508091505090565b60606000600460008473ffffffffffffffffffffffffffffffffffffffff1673ffffffffffffffffffffffffffffffffffffffff16815260200190815260200160002080548060200260200160405190810160405280929190818152602001828054801561180a57602002820191906000526020600020905b8154815260200190600101908083116117f6575b505050505090506000815167ffffffffffffffff811115611854577f4e487b7100000000000000000000000000000000000000000000000000000000600052604160045260246000fd5b60405190808252806020026020018201604052801561188d57816020015b61187a611f21565b8152602001906001900390816118725790505b50905060005b82518110156119cf57600160008483815181106118d9577f4e487b7100000000000000000000000000000000000000000000000000000000600052603260045260246000fd5b602002602001015181526020019081526020016000206040518060a0016040529081600082015481526020016001820160009054906101000a900473ffffffffffffffffffffffffffffffffffffffff1673ffffffffffffffffffffffffffffffffffffffff1673ffffffffffffffffffffffffffffffffffffffff16815260200160028201548152602001600382015481526020016004820154815250508282815181106119b1577f4e487b7100000000000000000000000000000000000000000000000000000000600052603260045260246000fd5b602002602001018190525080806119c790612b8d565b915050611893565b508092505050919050565b60008060008085815260200190815260200160002060020160009054906101000a900460ff1690506001151581151514611a49576040517f08c379a0000000000000000000000000000000000000000000000000000000008152600401611a40906127e1565b60405180910390fd5b600a6000600b600081548110611a88577f4e487b7100000000000000000000000000000000000000000000000000000000600052603260045260246000fd5b9060005260206000200154815260200190815260200160002060010160009054906101000a900473ffffffffffffffffffffffffffffffffffffffff1673ffffffffffffffffffffffffffffffffffffffff166323b872dd3330866040518463ffffffff1660e01b8152600401611b01939291906126b7565b602060405180830381600087803b158015611b1b57600080fd5b505af1158015611b2f573d6000803e3d6000fd5b505050506040513d601f19601f82011682018060405250810190611b53919061209b565b506040518060a00160405280600d5481526020013373ffffffffffffffffffffffffffffffffffffffff168152602001848152602001600081526020018581525060016000600d5481526020019081526020016000206000820151816000015560208201518160010160006101000a81548173ffffffffffffffffffffffffffffffffffffffff021916908373ffffffffffffffffffffffffffffffffffffffff160217905550604082015181600201556060820151816003015560808201518160040155905050826000808681526020019081526020016000206003016000828254611c4091906129b2565b92505081905550600060026000868152602001908152602001600020905080600d5490806001815401808255809150506001900390600052602060002001600090919091909150553360066000600d54815260200190815260200160002060006101000a81548173ffffffffffffffffffffffffffffffffffffffff021916908373ffffffffffffffffffffffffffffffffffffffff1602179055506000600460003373ffffffffffffffffffffffffffffffffffffffff1673ffffffffffffffffffffffffffffffffffffffff168152602001908152602001600020905080600d549080600181540180825580915050600190039060005260206000200160009091909190915055600d6000815480929190611d5c90612b8d565b91905055506001600d54611d709190612a93565b935050505092915050565b60008060026000848152602001908152602001600020805480602002602001604051908101604052809291908181526020018280548015611ddb57602002820191906000526020600020905b815481526020019060010190808311611dc7575b505050505090506000805b8251811015611e665760016000848381518110611e2c577f4e487b7100000000000000000000000000000000000000000000000000000000600052603260045260246000fd5b602002602001015181526020019081526020016000206002015482611e5191906129b2565b91508080611e5e90612b8d565b915050611de6565b508092505050919050565b60405180608001604052806000815260200160608152602001600015158152602001600081525090565b828054611ea790612b5b565b90600052602060002090601f016020900481019282611ec95760008555611f10565b82601f10611ee257805160ff1916838001178555611f10565b82800160010185558215611f10579182015b82811115611f0f578251825591602001919060010190611ef4565b5b509050611f1d9190611f99565b5090565b6040518060a0016040528060008152602001600073ffffffffffffffffffffffffffffffffffffffff1681526020016000815260200160008152602001600081525090565b604051806040016040528060008019168152602001600073ffffffffffffffffffffffffffffffffffffffff1681525090565b5b80821115611fb2576000816000905550600101611f9a565b5090565b6000611fc9611fc4846128aa565b612879565b905082815260208101848484011115611fe157600080fd5b611fec848285612b19565b509392505050565b60008135905061200381612ca3565b92915050565b60008151905061201881612cba565b92915050565b60008135905061202d81612cd1565b92915050565b600082601f83011261204457600080fd5b8135612054848260208601611fb6565b91505092915050565b60008135905061206c81612ce8565b92915050565b60006020828403121561208457600080fd5b600061209284828501611ff4565b91505092915050565b6000602082840312156120ad57600080fd5b60006120bb84828501612009565b91505092915050565b6000602082840312156120d657600080fd5b60006120e48482850161201e565b91505092915050565b6000806040838503121561210057600080fd5b600061210e8582860161201e565b925050602061211f85828601611ff4565b9150509250929050565b60006020828403121561213b57600080fd5b600082013567ffffffffffffffff81111561215557600080fd5b61216184828501612033565b91505092915050565b60006020828403121561217c57600080fd5b600061218a8482850161205d565b91505092915050565b600080604083850312156121a657600080fd5b60006121b48582860161205d565b92505060206121c58582860161205d565b9150509250929050565b60006121db83836124d4565b905092915050565b60006121ef838361259a565b60408301905092915050565b600061220783836125c9565b60a08301905092915050565b61221c81612ac7565b82525050565b61222b81612ac7565b82525050565b600061223c8261290a565b612246818561295d565b935083602082028501612258856128da565b8060005b85811015612294578484038952815161227585826121cf565b945061228083612936565b925060208a0199505060018101905061225c565b50829750879550505050505092915050565b60006122b182612915565b6122bb818561296e565b93506122c6836128ea565b8060005b838110156122f75781516122de88826121e3565b97506122e983612943565b9250506001810190506122ca565b5085935050505092915050565b600061230f82612920565b612319818561297f565b9350612324836128fa565b8060005b8381101561235557815161233c88826121fb565b975061234783612950565b925050600181019050612328565b5085935050505092915050565b61236b81612ad9565b82525050565b61237a81612ae5565b82525050565b61238981612ae5565b82525050565b600061239a8261292b565b6123a48185612990565b93506123b4818560208601612b28565b6123bd81612c92565b840191505092915050565b60006123d56024836129a1565b91507f43652073706c69745661756c74206e6520766f75732061707061727469656e7460008301527f20706173000000000000000000000000000000000000000000000000000000006020830152604082019050919050565b600061243b6029836129a1565b91507f6c20696e736372697074696f6e20612063652073706c69745661756c7420657360008301527f7420636c6f7475726500000000000000000000000000000000000000000000006020830152604082019050919050565b60006124a1600a836129a1565b91507f6f6e6c792061646d696e000000000000000000000000000000000000000000006000830152602082019050919050565b60006080830160008301516124ec6000860182612699565b5060208301518482036020860152612504828261238f565b91505060408301516125196040860182612362565b50606083015161252c6060860182612699565b508091505092915050565b600060808301600083015161254f6000860182612699565b5060208301518482036020860152612567828261238f565b915050604083015161257c6040860182612362565b50606083015161258f6060860182612699565b508091505092915050565b6040820160008201516125b06000850182612371565b5060208201516125c36020850182612213565b50505050565b60a0820160008201516125df6000850182612699565b5060208201516125f26020850182612213565b5060408201516126056040850182612699565b5060608201516126186060850182612699565b50608082015161262b6080850182612699565b50505050565b60a0820160008201516126476000850182612699565b50602082015161265a6020850182612213565b50604082015161266d6040850182612699565b5060608201516126806060850182612699565b5060808201516126936080850182612699565b50505050565b6126a281612b0f565b82525050565b6126b181612b0f565b82525050565b60006060820190506126cc6000830186612222565b6126d96020830185612222565b6126e660408301846126a8565b949350505050565b60006040820190506127036000830185612222565b61271060208301846126a8565b9392505050565b600060208201905081810360008301526127318184612231565b905092915050565b6000602082019050818103600083015261275381846122a6565b905092915050565b600060208201905081810360008301526127758184612304565b905092915050565b60006020820190506127926000830184612380565b92915050565b60006040820190506127ad6000830185612380565b6127ba6020830184612222565b9392505050565b600060208201905081810360008301526127da816123c8565b9050919050565b600060208201905081810360008301526127fa8161242e565b9050919050565b6000602082019050818103600083015261281a81612494565b9050919050565b6000602082019050818103600083015261283b8184612537565b905092915050565b600060a0820190506128586000830184612631565b92915050565b600060208201905061287360008301846126a8565b92915050565b6000604051905081810181811067ffffffffffffffff821117156128a05761289f612c63565b5b8060405250919050565b600067ffffffffffffffff8211156128c5576128c4612c63565b5b601f19601f8301169050602081019050919050565b6000819050602082019050919050565b6000819050602082019050919050565b6000819050602082019050919050565b600081519050919050565b600081519050919050565b600081519050919050565b600081519050919050565b6000602082019050919050565b6000602082019050919050565b6000602082019050919050565b600082825260208201905092915050565b600082825260208201905092915050565b600082825260208201905092915050565b600082825260208201905092915050565b600082825260208201905092915050565b60006129bd82612b0f565b91506129c883612b0f565b9250827fffffffffffffffffffffffffffffffffffffffffffffffffffffffffffffffff038211156129fd576129fc612bd6565b5b828201905092915050565b6000612a1382612b0f565b9150612a1e83612b0f565b925082612a2e57612a2d612c05565b5b828204905092915050565b6000612a4482612b0f565b9150612a4f83612b0f565b9250817fffffffffffffffffffffffffffffffffffffffffffffffffffffffffffffffff0483118215151615612a8857612a87612bd6565b5b828202905092915050565b6000612a9e82612b0f565b9150612aa983612b0f565b925082821015612abc57612abb612bd6565b5b828203905092915050565b6000612ad282612aef565b9050919050565b60008115159050919050565b6000819050919050565b600073ffffffffffffffffffffffffffffffffffffffff82169050919050565b6000819050919050565b82818337600083830152505050565b60005b83811015612b46578082015181840152602081019050612b2b565b83811115612b55576000848401525b50505050565b60006002820490506001821680612b7357607f821691505b60208210811415612b8757612b86612c34565b5b50919050565b6000612b9882612b0f565b91507fffffffffffffffffffffffffffffffffffffffffffffffffffffffffffffffff821415612bcb57612bca612bd6565b5b600182019050919050565b7f4e487b7100000000000000000000000000000000000000000000000000000000600052601160045260246000fd5b7f4e487b7100000000000000000000000000000000000000000000000000000000600052601260045260246000fd5b7f4e487b7100000000000000000000000000000000000000000000000000000000600052602260045260246000fd5b7f4e487b7100000000000000000000000000000000000000000000000000000000600052604160045260246000fd5b6000601f19601f8301169050919050565b612cac81612ac7565b8114612cb757600080fd5b50565b612cc381612ad9565b8114612cce57600080fd5b50565b612cda81612ae5565b8114612ce557600080fd5b50565b612cf181612b0f565b8114612cfc57600080fd5b5056fea26469706673582212204b6c17ecc1c5a15e42b37b75a42764b1034d7804322b3012d4e5ed5d5e140e1864736f6c63430008000033",
  "immutableReferences": {},
  "source": "pragma solidity 0.8.0;\n\nimport '@openzeppelin/contracts/token/ERC20/IERC20.sol';\n\ncontract SplitVault{\n\n        // SplitsVaults & Vaults par ID\n        mapping(uint => SplitVault) splitVaults;    \n        mapping(uint => Vault) Vaults;\n        // liens splitVaults / Vaults\n        mapping(uint=> uint[]) VaultsId_By_splitVaultId;\n        \n        //Splits & Vaults par owner\n        mapping(address=> uint[]) splitVaultsIdsByOwner;\n        mapping(address=> uint[]) VaultsIdsByOwner;\n        mapping(uint=> address) splitVaultOwnerById;\n        mapping(uint=> address) VaultOwnerById;\n\n        address[] splitOwnersList;\n        mapping(address=> bool) isOwnerAlreadyThere;\n        uint splitVaultsCount;\n        \n        // Tokens\n        mapping(bytes32 => Token) public tokens;\n        bytes32[] public tokenList;\n\n        uint splitVaultNextId;\n        uint VaultNextId;\n        \n        uint oneWei= 1 wei;\n\n        address admin;\n        address bnbAddress= 0xB8c77482e45F1F44dE1745F52C74426C631bDD52;\n\n        struct Token {\n            bytes32 ticker;\n            address tokenAddress;\n         }\n\n        struct SplitVault{  \n            uint splitId;          \n            string name;    \n            bool open;\n            uint totalAmount;                 \n        }\n\n        // part en 1/1000 (10% => 100)\n        struct Vault{\n            uint VaultId;\n            address from;\n            uint amount;\n            uint part;\n            uint splitId;\n        }        \n\n        constructor( ){\n            admin= msg.sender;\n            splitVaultNextId=0;\n            VaultNextId=0;\n        }\n\n        function createSplitVault(string memory name) external returns(uint){            \n            splitVaults[splitVaultNextId] = SplitVault(splitVaultNextId,name,true, 0);\n                   \n             if(isOwnerAlreadyThere[msg.sender]==false){\n                 splitOwnersList.push(msg.sender); \n                 isOwnerAlreadyThere[msg.sender]=true;\n             }  \n             \n         \n            uint[] storage sbByAdress = splitVaultsIdsByOwner[msg.sender];\n            sbByAdress.push(splitVaultNextId);\n            splitVaultOwnerById[splitVaultNextId]= msg.sender;\n\n            splitVaultNextId++;\n            splitVaultsCount++;           \n            return splitVaultNextId-1;\n        }\n\n        function deposit(uint splitVaultId, uint amount) external returns (uint ) {\n            bool isOpen = splitVaults[splitVaultId].open;\n            require(isOpen==true,'l inscription a ce splitVault est cloture');\n\n            IERC20(tokens[tokenList[0]].tokenAddress).transferFrom(\n                    msg.sender,\n                    address(this),\n                    amount\n                    );\n\n            Vaults[VaultNextId] = Vault(VaultNextId,msg.sender, amount, 0, splitVaultId); \n\n            splitVaults[splitVaultId].totalAmount += amount;  \n            uint[] storage VaultsSplit = VaultsId_By_splitVaultId[splitVaultId];   \n            VaultsSplit.push(VaultNextId);\n\n            VaultOwnerById[VaultNextId]= msg.sender;\n\n            uint[] storage VaultsByAdress = VaultsIdsByOwner[msg.sender]; \n            VaultsByAdress.push(VaultNextId);\n            \n            VaultNextId++;\n            return (VaultNextId - 1);\n        }        \n\n        function retire (uint id,  uint amount) external isSplitFromSender(id){           \n           \n            uint[] storage _VaultIds = VaultsId_By_splitVaultId[id];\n            uint amountToTransfer;\n\n            for(uint i =0;i< _VaultIds.length;i++){  \n                //uint amountToTransfer = amount * (Vaults[_VaultIds[i]].part/1000);\n                uint VaultPart = Vaults[_VaultIds[i]].part;\n                amountToTransfer = (amount/1e18) * VaultPart * 1e15;\n                \n                IERC20(tokens[tokenList[0]].tokenAddress).transfer(\n                    Vaults[_VaultIds[i]].from,\n                    amountToTransfer\n                 );\n            }\n        }\n\n        function closeSubsplitVault(uint id) external isSplitFromSender(id) {           \n\n            SplitVault storage sb =  splitVaults[id];      \n\n            // calcul repartition\n            uint[] memory _VaultsId = VaultsId_By_splitVaultId[id];\n            \n\n            for(uint j =0;j< _VaultsId.length;j++){  \n                Vault storage _Vault=  Vaults[_VaultsId[j]];\n               \n                _Vault.part = (_Vault.amount *1000) / sb.totalAmount;\n                //_Vault.part = _Vault.amount / TotalAmount * 1000;\n            }\n            sb.open = false;\n        }\n\n\n        function getTokens() \n            external \n            view \n            returns(Token[] memory) {\n            Token[] memory _tokens = new Token[](tokenList.length);\n            for (uint i = 0; i < tokenList.length; i++) {\n                _tokens[i] = Token(\n                tokens[tokenList[i]].ticker,\n                tokens[tokenList[i]].tokenAddress\n                );\n            }\n            return _tokens;\n        }\n    \n        function addToken(\n            bytes32 ticker,\n            address tokenAddress)\n            onlyAdmin()\n            external {\n            tokens[ticker] = Token(ticker, tokenAddress);\n            tokenList.push(ticker);\n        }\n\n        function getSplitVaults(address sbOwner) external view returns(SplitVault[] memory){       \n            uint[] memory splitVaultsOfOwner= splitVaultsIdsByOwner[sbOwner];\n            SplitVault[] memory ret = new SplitVault[](splitVaultsOfOwner.length);\n            for(uint i =0;i< splitVaultsOfOwner.length;i++){\n                ret[i]=splitVaults[splitVaultsOfOwner[i]];     \n           } \n\n            return ret;\n        }\n\n        function getSplitVaultById(uint id) external view returns(SplitVault memory){  \n            return splitVaults[id];\n        }\n\n        function getAllSplitVaults() external view returns(SplitVault[] memory){      \n            SplitVault[] memory ret =new SplitVault[](splitVaultsCount);\n            uint index=0;\n\n             for(uint i =0;i< splitOwnersList.length;i++){  \n                \n                  for(uint j =0;j< splitVaultsIdsByOwner[splitOwnersList[i]].length;j++){ \n                      \n                      uint id =splitVaultsIdsByOwner[splitOwnersList[i]][j];  \n                      ret[index]= splitVaults[id];\n                      index += 1;   \n                  }     \n             }   \n            return ret;\n        }\n\n        function getVaultById(uint id) public view returns (Vault memory){\n            return Vaults[id];\n        }\n\n       \n\n        function getVaultsByAddress(address addr) external view returns (Vault[] memory){\n           uint[] memory VaultsId = VaultsIdsByOwner[addr];\n            Vault[] memory ret= new Vault[](VaultsId.length);   \n                for(uint i =0;i< VaultsId.length;i++){  \n                  ret[i]= Vaults[VaultsId[i]]; \n                }   \n            return ret;\n        }\n\n        \n        function getTotalAmountsplitVault(uint id) public view returns(uint){\n            uint[] memory _VaultIds = VaultsId_By_splitVaultId[id];\n            uint ret = 0;\n            for(uint i =0;i< _VaultIds.length;i++){  \n                ret += Vaults[_VaultIds[i]].amount;\n            }\n            return ret;\n        }\n\n        modifier isSplitFromSender(uint id) {\n            bool ok= false;\n            uint[] memory splitIdsFromSender = splitVaultsIdsByOwner[msg.sender];\n            for(uint i =0;i< splitIdsFromSender.length;i++){  \n                if (splitIdsFromSender[i] == id){\n                    ok=true;\n                }            \n            }\n            require(\n                ok==true,\n                'Ce splitVault ne vous appartient pas'\n            );\n        _;\n        }\n\n\n        modifier tokenExist(bytes32 ticker) {\n            require(\n                tokens[ticker].tokenAddress != address(0),\n                'this token does not exist'\n            );\n        _;\n        }\n        \n        modifier onlyAdmin() {\n            require(msg.sender == admin, 'only admin');\n            _;\n        }\n}",
  "sourcePath": "E:\\Workbench_Moula\\crypto\\dev\\VaultTest\\contracts\\SplitVault.sol",
  "compiler": {
    "name": "solc",
    "version": "0.8.0+commit.c7dfd78e.Emscripten.clang"
  },
  "schemaVersion": "3.4.4",
  "updatedAt": "2022-01-18T18:48:57.418Z",
  "networkType": "ethereum",
  "devdoc": {
    "kind": "dev",
    "methods": {},
    "version": 1
  },
  "userdoc": {
    "kind": "user",
    "methods": {},
    "version": 1
  }
}